{
  "contractName": "HelloWorld",
  "abi": [
    {
      "inputs": [
        {
          "internalType": "uint256",
          "name": "howMany",
          "type": "uint256"
        }
      ],
      "name": "freeTokens",
      "outputs": [
        {
          "internalType": "bool",
          "name": "",
          "type": "bool"
        }
      ],
      "stateMutability": "nonpayable",
      "type": "function"
    },
    {
      "inputs": [
        {
          "internalType": "uint256",
          "name": "howMany",
          "type": "uint256"
        }
      ],
      "name": "burnTokens",
      "outputs": [
        {
          "internalType": "bool",
          "name": "",
          "type": "bool"
        }
      ],
      "stateMutability": "nonpayable",
      "type": "function"
    },
    {
      "inputs": [
        {
          "internalType": "address",
          "name": "_from",
          "type": "address"
        },
        {
          "internalType": "address",
          "name": "to",
          "type": "address"
        },
        {
          "internalType": "uint256",
          "name": "howMany",
          "type": "uint256"
        }
      ],
      "name": "sendCoin",
      "outputs": [
        {
          "internalType": "bool",
          "name": "",
          "type": "bool"
        }
      ],
      "stateMutability": "nonpayable",
      "type": "function"
    },
    {
      "inputs": [
        {
          "internalType": "address",
          "name": "_b",
          "type": "address"
        }
      ],
      "name": "balanceOf",
      "outputs": [
        {
          "internalType": "uint256",
          "name": "",
          "type": "uint256"
        }
      ],
      "stateMutability": "view",
      "type": "function",
      "constant": true
    },
    {
      "inputs": [],
      "name": "getAddress",
      "outputs": [
        {
          "internalType": "address",
          "name": "",
          "type": "address"
        }
      ],
      "stateMutability": "view",
      "type": "function",
      "constant": true
    },
    {
      "inputs": [
        {
          "internalType": "string",
          "name": "data",
          "type": "string"
        },
        {
          "internalType": "uint256",
          "name": "price",
          "type": "uint256"
        },
        {
          "internalType": "uint256",
          "name": "quantity",
          "type": "uint256"
        }
      ],
      "name": "addAListing",
      "outputs": [
        {
          "internalType": "bool",
          "name": "",
          "type": "bool"
        }
      ],
      "stateMutability": "nonpayable",
      "type": "function"
    },
    {
      "inputs": [
        {
          "internalType": "uint256",
          "name": "id",
          "type": "uint256"
        },
        {
          "internalType": "uint256",
          "name": "price",
          "type": "uint256"
        }
      ],
      "name": "addAListingUM",
      "outputs": [
        {
          "internalType": "bool",
          "name": "",
          "type": "bool"
        }
      ],
      "stateMutability": "nonpayable",
      "type": "function"
    },
    {
      "inputs": [
        {
          "internalType": "address",
          "name": "who",
          "type": "address"
        },
        {
          "internalType": "uint256",
          "name": "_id",
          "type": "uint256"
        }
      ],
      "name": "viewListingById",
      "outputs": [
        {
          "internalType": "string",
          "name": "",
          "type": "string"
        }
      ],
      "stateMutability": "view",
      "type": "function",
      "constant": true
    },
    {
      "inputs": [],
      "name": "getTotalListings",
      "outputs": [
        {
          "internalType": "uint256",
          "name": "",
          "type": "uint256"
        }
      ],
      "stateMutability": "view",
      "type": "function",
      "constant": true
    },
    {
      "inputs": [
        {
          "internalType": "uint256",
          "name": "id",
          "type": "uint256"
        }
      ],
      "name": "purchaseStuff",
      "outputs": [
        {
          "internalType": "bool",
          "name": "",
          "type": "bool"
        }
      ],
      "stateMutability": "nonpayable",
      "type": "function"
    },
    {
      "inputs": [
        {
          "internalType": "address",
          "name": "_from",
          "type": "address"
        },
        {
          "internalType": "address",
          "name": "_to",
          "type": "address"
        },
        {
          "internalType": "uint256",
          "name": "id",
          "type": "uint256"
        }
      ],
      "name": "transferItem",
      "outputs": [
        {
          "internalType": "bool",
          "name": "",
          "type": "bool"
        }
      ],
      "stateMutability": "nonpayable",
      "type": "function"
    }
  ],
  "bytecode": "0x608060405234801561001057600080fd5b506117f1806100206000396000f3fe608060405234801561001057600080fd5b50600436106100a95760003560e01c80636295c61a116100715780636295c61a1461018c5780636d1b229d146101bc57806370a08231146101ec57806371ef0b921461021c578063f04212f81461024c578063fbf30c351461027c576100a9565b80630b40bd88146100ae57806338cc4831146100de578063412ac45a146100fc578063507d36df1461012c5780635a6e82f31461015c575b600080fd5b6100c860048036038101906100c39190611213565b61029a565b6040516100d59190611281565b60405180910390f35b6100e6610353565b6040516100f391906112ab565b60405180910390f35b610116600480360381019061011191906112c6565b61035b565b604051610123919061139f565b60405180910390f35b610146600480360381019061014191906113c1565b6104d9565b6040516101539190611281565b60405180910390f35b610176600480360381019061017191906113c1565b61087d565b6040516101839190611281565b60405180910390f35b6101a660048036038101906101a19190611213565b6108de565b6040516101b39190611281565b60405180910390f35b6101d660048036038101906101d191906113c1565b610aeb565b6040516101e39190611281565b60405180910390f35b610206600480360381019061020191906113ee565b610b9d565b604051610213919061142a565b60405180910390f35b6102366004803603810190610231919061157a565b610be6565b6040516102439190611281565b60405180910390f35b610266600480360381019061026191906115e9565b610ccd565b6040516102739190611281565b60405180910390f35b610284610f3a565b604051610291919061142a565b60405180910390f35b600081600a60008673ffffffffffffffffffffffffffffffffffffffff1673ffffffffffffffffffffffffffffffffffffffff16815260200190815260200160002060008282546102eb9190611658565b9250508190555081600a60008573ffffffffffffffffffffffffffffffffffffffff1673ffffffffffffffffffffffffffffffffffffffff1681526020019081526020016000206000828254610341919061168c565b92505081905550600190509392505050565b600033905090565b60606103f482600260008673ffffffffffffffffffffffffffffffffffffffff1673ffffffffffffffffffffffffffffffffffffffff1681526020019081526020016000208054806020026020016040519081016040528092919081815260200182805480156103ea57602002820191906000526020600020905b8154815260200190600101908083116103d6575b5050505050610f44565b610435576040518060400160405280601e81526020017f796f7520276f6e206576656e206f776e2074686973206974656d206c6f6c000081525090506104d3565b600080838152602001908152602001600020805461045290611711565b80601f016020809104026020016040519081016040528092919081815260200182805461047e90611711565b80156104cb5780601f106104a0576101008083540402835291602001916104cb565b820191906000526020600020905b8154815290600101906020018083116104ae57829003601f168201915b505050505090505b92915050565b60006001600083815260200190815260200160002054600a60003373ffffffffffffffffffffffffffffffffffffffff1673ffffffffffffffffffffffffffffffffffffffff16815260200190815260200160002054101561053e5760009050610878565b6000600360008481526020019081526020016000205411156106e9576001600083815260200190815260200160002054600a60003373ffffffffffffffffffffffffffffffffffffffff1673ffffffffffffffffffffffffffffffffffffffff16815260200190815260200160002060008282546105bc9190611658565b9250508190555060016003600084815260200190815260200160002060008282546105e79190611658565b92505081905550600260003373ffffffffffffffffffffffffffffffffffffffff1673ffffffffffffffffffffffffffffffffffffffff168152602001908152602001600020829080600181540180825580915050600190039060005260206000200160009091909190915055620186a0600a60006004600086815260200190815260200160002060009054906101000a900473ffffffffffffffffffffffffffffffffffffffff1673ffffffffffffffffffffffffffffffffffffffff1673ffffffffffffffffffffffffffffffffffffffff16815260200190815260200160002060008282546106d9919061168c565b9250508190555060019050610878565b6006600083815260200190815260200160002054600a60003373ffffffffffffffffffffffffffffffffffffffff1673ffffffffffffffffffffffffffffffffffffffff168152602001908152602001600020600082825461074b9190611658565b925050819055506001600083815260200190815260200160002054600a60006007600086815260200190815260200160002060009054906101000a900473ffffffffffffffffffffffffffffffffffffffff1673ffffffffffffffffffffffffffffffffffffffff1673ffffffffffffffffffffffffffffffffffffffff16815260200190815260200160002060008282546107e7919061168c565b92505081905550600260003373ffffffffffffffffffffffffffffffffffffffff1673ffffffffffffffffffffffffffffffffffffffff1681526020019081526020016000208290806001815401808255809150506001900390600052602060002001600090919091909150556005600083815260200190815260200160002060006108739190610ffb565b600190505b919050565b600081600a60003373ffffffffffffffffffffffffffffffffffffffff1673ffffffffffffffffffffffffffffffffffffffff16815260200190815260200160002060008282546108ce919061168c565b9250508190555060019050919050565b600061097782600260008773ffffffffffffffffffffffffffffffffffffffff1673ffffffffffffffffffffffffffffffffffffffff16815260200190815260200160002080548060200260200160405190810160405280929190818152602001828054801561096d57602002820191906000526020600020905b815481526020019060010190808311610959575b5050505050610f44565b6109845760009050610ae4565b600260008573ffffffffffffffffffffffffffffffffffffffff1673ffffffffffffffffffffffffffffffffffffffff168152602001908152602001600020610a5a83600260008873ffffffffffffffffffffffffffffffffffffffff1673ffffffffffffffffffffffffffffffffffffffff168152602001908152602001600020805480602002602001604051908101604052809291908181526020018280548015610a5057602002820191906000526020600020905b815481526020019060010190808311610a3c575b5050505050610fa0565b81548110610a6b57610a6a611743565b5b9060005260206000200160009055600260008473ffffffffffffffffffffffffffffffffffffffff1673ffffffffffffffffffffffffffffffffffffffff168152602001908152602001600020829080600181540180825580915050600190039060005260206000200160009091909190915055600190505b9392505050565b6000600a60003373ffffffffffffffffffffffffffffffffffffffff1673ffffffffffffffffffffffffffffffffffffffff16815260200190815260200160002054821115610b3d5760009050610b98565b81600a60003373ffffffffffffffffffffffffffffffffffffffff1673ffffffffffffffffffffffffffffffffffffffff1681526020019081526020016000206000828254610b8c9190611658565b92505081905550600190505b919050565b6000600a60008373ffffffffffffffffffffffffffffffffffffffff1673ffffffffffffffffffffffffffffffffffffffff168152602001908152602001600020549050919050565b60006001600854610bf7919061168c565b6008819055508360008060085481526020019081526020016000209080519060200190610c2592919061103b565b508260016000600854815260200190815260200160002081905550816003600060085481526020019081526020016000208190555073a50ba8074de6406da000dc26a5bfec7b890351a360046000600854815260200190815260200160002060006101000a81548173ffffffffffffffffffffffffffffffffffffffff021916908373ffffffffffffffffffffffffffffffffffffffff160217905550600190509392505050565b6000610d6683600260003373ffffffffffffffffffffffffffffffffffffffff1673ffffffffffffffffffffffffffffffffffffffff168152602001908152602001600020805480602002602001604051908101604052809291908181526020018280548015610d5c57602002820191906000526020600020905b815481526020019060010190808311610d48575b5050505050610f44565b610d735760009050610f34565b600160096000828254610d86919061168c565b92505081905550600080848152602001908152602001600020600560006009548152602001908152602001600020908054610dc090611711565b610dcb9291906110c1565b5081600660006009548152602001908152602001600020819055503360076000600954815260200190815260200160002060006101000a81548173ffffffffffffffffffffffffffffffffffffffff021916908373ffffffffffffffffffffffffffffffffffffffff160217905550600260003373ffffffffffffffffffffffffffffffffffffffff1673ffffffffffffffffffffffffffffffffffffffff168152602001908152602001600020610f1084600260003373ffffffffffffffffffffffffffffffffffffffff1673ffffffffffffffffffffffffffffffffffffffff168152602001908152602001600020805480602002602001604051908101604052809291908181526020018280548015610f0657602002820191906000526020600020905b815481526020019060010190808311610ef2575b5050505050610fa0565b81548110610f2157610f20611743565b5b9060005260206000200160009055600190505b92915050565b6000600854905090565b600080600090505b8251811015610f945783838281518110610f6957610f68611743565b5b60200260200101511415610f81576001915050610f9a565b8080610f8c90611772565b915050610f4c565b50600090505b92915050565b600080600090505b8251811015610fef5783838281518110610fc557610fc4611743565b5b60200260200101511415610fdc5780915050610ff5565b8080610fe790611772565b915050610fa8565b50600090505b92915050565b50805461100790611711565b6000825580601f106110195750611038565b601f016020900490600052602060002090810190611037919061114e565b5b50565b82805461104790611711565b90600052602060002090601f01602090048101928261106957600085556110b0565b82601f1061108257805160ff19168380011785556110b0565b828001600101855582156110b0579182015b828111156110af578251825591602001919060010190611094565b5b5090506110bd919061114e565b5090565b8280546110cd90611711565b90600052602060002090601f0160209004810192826110ef576000855561113d565b82601f10611100578054855561113d565b8280016001018555821561113d57600052602060002091601f016020900482015b8281111561113c578254825591600101919060010190611121565b5b50905061114a919061114e565b5090565b5b8082111561116757600081600090555060010161114f565b5090565b6000604051905090565b600080fd5b600080fd5b600073ffffffffffffffffffffffffffffffffffffffff82169050919050565b60006111aa8261117f565b9050919050565b6111ba8161119f565b81146111c557600080fd5b50565b6000813590506111d7816111b1565b92915050565b6000819050919050565b6111f0816111dd565b81146111fb57600080fd5b50565b60008135905061120d816111e7565b92915050565b60008060006060848603121561122c5761122b611175565b5b600061123a868287016111c8565b935050602061124b868287016111c8565b925050604061125c868287016111fe565b9150509250925092565b60008115159050919050565b61127b81611266565b82525050565b60006020820190506112966000830184611272565b92915050565b6112a58161119f565b82525050565b60006020820190506112c0600083018461129c565b92915050565b600080604083850312156112dd576112dc611175565b5b60006112eb858286016111c8565b92505060206112fc858286016111fe565b9150509250929050565b600081519050919050565b600082825260208201905092915050565b60005b83811015611340578082015181840152602081019050611325565b8381111561134f576000848401525b50505050565b6000601f19601f8301169050919050565b600061137182611306565b61137b8185611311565b935061138b818560208601611322565b61139481611355565b840191505092915050565b600060208201905081810360008301526113b98184611366565b905092915050565b6000602082840312156113d7576113d6611175565b5b60006113e5848285016111fe565b91505092915050565b60006020828403121561140457611403611175565b5b6000611412848285016111c8565b91505092915050565b611424816111dd565b82525050565b600060208201905061143f600083018461141b565b92915050565b600080fd5b600080fd5b7f4e487b7100000000000000000000000000000000000000000000000000000000600052604160045260246000fd5b61148782611355565b810181811067ffffffffffffffff821117156114a6576114a561144f565b5b80604052505050565b60006114b961116b565b90506114c5828261147e565b919050565b600067ffffffffffffffff8211156114e5576114e461144f565b5b6114ee82611355565b9050602081019050919050565b82818337600083830152505050565b600061151d611518846114ca565b6114af565b9050828152602081018484840111156115395761153861144a565b5b6115448482856114fb565b509392505050565b600082601f83011261156157611560611445565b5b813561157184826020860161150a565b91505092915050565b60008060006060848603121561159357611592611175565b5b600084013567ffffffffffffffff8111156115b1576115b061117a565b5b6115bd8682870161154c565b93505060206115ce868287016111fe565b92505060406115df868287016111fe565b9150509250925092565b60008060408385031215611600576115ff611175565b5b600061160e858286016111fe565b925050602061161f858286016111fe565b9150509250929050565b7f4e487b7100000000000000000000000000000000000000000000000000000000600052601160045260246000fd5b6000611663826111dd565b915061166e836111dd565b92508282101561168157611680611629565b5b828203905092915050565b6000611697826111dd565b91506116a2836111dd565b9250827fffffffffffffffffffffffffffffffffffffffffffffffffffffffffffffffff038211156116d7576116d6611629565b5b828201905092915050565b7f4e487b7100000000000000000000000000000000000000000000000000000000600052602260045260246000fd5b6000600282049050600182168061172957607f821691505b6020821081141561173d5761173c6116e2565b5b50919050565b7f4e487b7100000000000000000000000000000000000000000000000000000000600052603260045260246000fd5b600061177d826111dd565b91507fffffffffffffffffffffffffffffffffffffffffffffffffffffffffffffffff8214156117b0576117af611629565b5b60018201905091905056fea264697066735822122055f21aec72152805ab872f4dd22b8114d73836bb8718968943bbe98a25e11bd864736f6c634300080a0033",
  "immutableReferences": {},
  "source": "// We will be using Solidity version 0.5.3\r\npragma solidity 0.8.10;\r\n\r\ncontract HelloWorld {\r\n  // maps for the Artist Marketplace\r\n  mapping (uint => string) private stuff; // The array which stores all the obtainable items (the key is the I.D. of the item)\r\n  mapping (uint => uint) private stuff_prices; // The array which stores the price of the corresponding stuff\r\n  mapping (address => uint[]) private stuff_ownership; // The array which stores the \"who owns what\" data\r\n  mapping (uint => uint) private stuff_quantity; // The array for how much stuff is left to be sold\r\n  mapping (uint => address) private stuff_sellers;\r\n  // maps for user market\r\n  mapping (uint => string) private um_stuff;\r\n  mapping (uint => uint) private um_prices;\r\n  mapping (uint => address) private um_sellers;\r\n\r\n\r\n  uint stuff_registered; // Length of \"stuff\" and \"stuff_prices\" array\r\n  uint um_stuff_registered;\r\n\r\n  mapping(address => uint) private balances;\r\n\r\n  // Privates\r\n\r\n  function includes(uint needle, uint[] memory haystack) private view returns(bool) { // Basicaly the '.includes()' that javascript has\r\n    for (uint i = 0; i < haystack.length; i++) {\r\n      if (haystack[i] == needle) return true;\r\n    }\r\n    return false;\r\n  }\r\n\r\n  function indexOf(uint needle, uint[] memory haystack) private view returns(uint) { // Basically the '.indexof()' that javscript has\r\n    for (uint i = 0; i < haystack.length; i++) {\r\n      if (haystack[i] == needle) return i;\r\n    }\r\n    return 0;\r\n  }\r\n\r\n  function uint2str(uint _i) internal pure returns (string memory _uintAsString) { // Converts uint --> string\r\n      if (_i == 0) {\r\n          return \"0\";\r\n      }\r\n      uint j = _i;\r\n      uint len;\r\n      while (j != 0) {\r\n          len++;\r\n          j /= 10;\r\n      }\r\n      bytes memory bstr = new bytes(len);\r\n      uint k = len;\r\n      while (_i != 0) {\r\n          k = k-1;\r\n          uint8 temp = (48 + uint8(_i - _i / 10 * 10));\r\n          bytes1 b1 = bytes1(temp);\r\n          bstr[k] = b1;\r\n          _i /= 10;\r\n      }\r\n      return string(bstr);\r\n  }\r\n\r\n  // Functions for monetary exchange\r\n\r\n  function freeTokens(uint howMany) public returns(bool) {\r\n    balances[msg.sender] += howMany;\r\n    return true;\r\n  }\r\n\r\n  function burnTokens(uint howMany) public returns(bool) {\r\n    if (howMany > balances[msg.sender]) return false;\r\n    balances[msg.sender] -= howMany;\r\n    return true;\r\n  }\r\n\r\n  function sendCoin(address _from, address to, uint howMany) public returns(bool) {\r\n    balances[_from] -= howMany;\r\n    balances[to] += howMany;\r\n    return true;\r\n  }\r\n\r\n  function balanceOf(address _b) public view returns(uint) {\r\n    return balances[_b];\r\n  }\r\n\r\n  function getAddress() public view returns(address) {\r\n    return msg.sender;\r\n  }\r\n\r\n  // Functions regarding le \"Obtainable Objects\"\r\n\r\n  function addAListing(string memory data, uint price, uint quantity) public returns(bool) {\r\n    stuff_registered = stuff_registered + 1;\r\n    stuff[stuff_registered] = data;\r\n    stuff_prices[stuff_registered] = price;\r\n    stuff_quantity[stuff_registered] = quantity;\r\n    stuff_sellers[stuff_registered] = 0xa50Ba8074de6406Da000dc26A5BFeC7B890351A3; // replace with 'msg.sender' after tests are done\r\n    return true;\r\n  }\r\n\r\n  function addAListingUM(uint id, uint price) public returns(bool) {\r\n    if (!includes(id, stuff_ownership[msg.sender])) {return false;}\r\n    um_stuff_registered += 1;\r\n    um_stuff[um_stuff_registered] = stuff[id];\r\n    um_prices[um_stuff_registered] = price;\r\n    um_sellers[um_stuff_registered] = msg.sender;\r\n    delete stuff_ownership[msg.sender][indexOf(id, stuff_ownership[msg.sender])];\r\n    return true;\r\n  }\r\n\r\n  function viewListingById(address who, uint _id) public view returns(string memory) {\r\n    if (!includes(_id, stuff_ownership[who])) return \"you 'on even own this item lol\";\r\n    return stuff[_id];\r\n  }\r\n\r\n  function getTotalListings() public view returns(uint) {\r\n    return stuff_registered;\r\n  }\r\n\r\n  function purchaseStuff(uint id) public returns(bool) {\r\n    if (balances[msg.sender] < stuff_prices[id]) {return false;} else if (stuff_quantity[id] > 0) {\r\n      balances[msg.sender] -= stuff_prices[id];\r\n      stuff_quantity[id] -= 1;\r\n      stuff_ownership[msg.sender].push(id);\r\n      balances[stuff_sellers[id]] += 100000;\r\n      return true;\r\n    } else {\r\n      balances[msg.sender] -= um_prices[id];\r\n      balances[um_sellers[id]] += stuff_prices[id];\r\n      stuff_ownership[msg.sender].push(id);\r\n      delete um_stuff[id];\r\n      return true;\r\n    }\r\n  }\r\n\r\n  function transferItem(address _from, address _to, uint id) public returns(bool) {\r\n    if (!includes(id, stuff_ownership[_from])) {return false;} else {\r\n      delete stuff_ownership[_from][indexOf(id, stuff_ownership[_from])];\r\n      stuff_ownership[_to].push(id);\r\n      return true;\r\n    }\r\n  }\r\n\r\n  // function getListedItems() public view returns(string memory) {\r\n  //   string memory _final;\r\n  //   for (uint i = 1; i < stuff_registered; i++) {\r\n  //     _final += string(stuff[i]) + \"($\" + uint2str(stuff_prices[i]) + \")(\" + uint2str(stuff_quantity) + \" copies remaining)\\n\";\r\n  //   }\r\n  //   return _final;\r\n  // }\r\n}\r\n",
  "sourcePath": "C:\\Users\\Bob Ross\\contract\\contracts\\h_w.sol",
  "compiler": {
    "name": "solc",
    "version": "0.8.10+commit.fc410830.Emscripten.clang"
  },
  "schemaVersion": "3.4.3",
  "updatedAt": "2021-11-21T01:04:19.733Z",
  "networkType": "ethereum",
  "devdoc": {
    "kind": "dev",
    "methods": {},
    "version": 1
  },
  "userdoc": {
    "kind": "user",
    "methods": {},
    "version": 1
  }
}